:020000040001F9
:10400000004000203D4101005141010053410100A9
:1040100000000000000000000000000000000000A0
:1040200000000000000000000000000055410100F9
:10403000000000000000000057410100594101004C
:104040005B4101005B4101002D8B02005B410100DF
:10405000B9A102000000000071A90200B598020099
:104060005B4101005B4101005B4101005B410100DC
:104070005B4101005B4101005B4101005B410100CC
:104080005B410100DFA502005B4101005B410100D3
:104090005B4101005B41010077AA02005B41010026
:1040A0005B4101005B4101000000000000000000D6
:1040B0000000000000000000000000000000000000
:1040C000FFFFFFFFFFFFFFFFFFFFFFFFFFFFFFFF00
:1040D000FFFFFFFFFFFFFFFFFFFFFFFFFFFFFFFFF0
:1040E000FFFFFFFFFFFFFFFFFFFFFFFFFFFFFFFFE0
:1040F000FFFFFFFFFFFFFFFFFFFFFFFFFFFFFFFFD0
:104100000348854618F0C2F80048004733410100D3
:1041100000400020401E00BF00BF00BF00BF00BF26
:1041200000BF00BF00BF00BF00BF00BF00BFF1D194
:10413000704710B517F084FA10BD00000D480268F2
:104140000F210A4302600C4880470C480047FEE7F5
:1041500003E002E001E000E0C046094880F309887E
:1041600080F3088817F0AEF9064870470448704796
:1041700005487047240500408D41010001410100C0
:104180000040002000080000D011000010B500F031
:1041900009F8002805D0154913484860C813144988
:1041A000886110BD1348016AC9B2012917D1416A5B
:1041B000090714D1816A09060A0F03D1C26A1206DF
:1041C000120F0ED0090F012903D1C26A1206120F75
:1041D00007D0032903D1C06A0006000F01D00020D8
:1041E0007047012070470000DFFF07C00005004056
:1041F000006C0040C00F00F0FEB50B4604460125E0
:104200001434694602AA0C2B48D008DC002B0FD0CE
:10421000032B13D0062B23D0072B06D120E00D2B28
:1042200041D0102B56D0212B59D000252846FEBD59
:104230000722FAA1204607F0BEF8F7E70121204641
:1042400007F054F92E21204607F04AF905212046AF
:1042500007F04CF92E21204607F042F946213FE0B5
:10426000072B19D0002013460A1D02F0CFFE20466E
:10427000009907F048F92C21204607F031F9204633
:10428000029907F040F92C21204607F029F9204631
:10429000019907F038F9C9E70120E4E7C188204611
:1042A00007F0A3F8C2E700200880DE4FDE4E0CE0E6
:1042B0004000395A204607F098F82021204607F0A0
:1042C0000FF969460888401C0880088831888842B0
:1042D000EED3ABE7091D684605F076FBC7E7022180
:1042E000204607F003F92E21204607F0F9F80021B7
:1042F000204607F0FBF899E7F8B504460069CB497A
:1043000002F0DEF9002026462036307502E0216AF0
:1043100020698847206B12F0FBFD0500F7D0C448E8
:104320000127854206D1206B12F0DAFCFF21033110
:10433000206906E0BE48401C854206D1FF210531B8
:10434000206902F0BDF937750CE0B948FF260A3044
:104350000236854202D1206B12F00AFC31462069F8
:1043600002F0AEF92846F8BDFFB589B00446002733
:104370001646177002A801F0E2FA02A801F057FBF6
:10438000AC4869468880207A02A902F0D6FD002850
:104390004DD04221206916F0A7FF207A02A9226B96
:1043A00012F0EEFB69468880FF2842D80021206B7E
:1043B00012F07AFB69468880FF283AD82546A06A21
:1043C0002835002802D0284602F0A1FC01A8009060
:1043D000207A0023012202A902F046FCA062206993
:1043E0000C9902F0D1F94321206916F07DFF204697
:1043F000FFF782FF69468880FF2818D98C49491E3B
:10440000884202D16846878011E0606A002803D0A4
:104410002046243002F07BFCA06A002802D0284607
:1044200002F075FC206B12F0A3FB0120307068468F
:1044300080880DB0F0BD38B50446002060800D4680
:10444000206902F07FF9C11FFC3901D07A4838BDDC
:10445000E06A002810D00121204601F027F801462B
:104460008088002806D02B466A46E06A06F06DFC7C
:10447000FF28ECD8002038BD6F48401E38BDF8B585
:1044800004460069694902F01BF9254600202035E1
:1044900028756080206B12F02AFCFF2802D1206B67
:1044A00012F01EFC206B12F022FC01280BD1206BB5
:1044B00012F021FC608006E0206B12F038FD608075
:1044C000216A2069884760880028F5D0584980B261
:1044D0000126884206D1206B12F002FCFF21033135
:1044E000206915E05249FF27491E0237884204D14E
:1044F0003946206902F0E4F80DE04D490A3188425E
:1045000003D1206B12F034FBF2E7FF210531206963
:1045100002F0D6F82E756088F8BDF8B50D4616463F
:104520000446012100F0C2FF074644486080A06AAB
:10453000002806D02A46394606F0B8FD6080FF28DC
:104540000BD9606A002827D02A46394606F0AEFD0E
:104550006080FF2820D80220288033460022294688
:10456000206B12F059FB6080E888012820D958217F
:10457000095BC90713D0E16F00291BDB814219DAFF
:10458000A888376806F098FEE16F4843A98880B292
:10459000102907D2410006E027481538F8BD264803
:1045A0001438F8BDC100791831606988081868802E
:1045B0000020F8BD20481338F8BD10B51430032A88
:1045C00008D0042A0BD0102A03D10968012206F072
:1045D000A7FF10BD0968096806F095FF10BD0968BE
:1045E000096806F01CFF10BD70B514300C46054676
:1045F000032A08D0042A06D0102A03D10968012210
:1046000006F08EFF70BD02220DA106F0D4FE2068D8
:104610000168284606F0F6FE70BD0000424C3630B8
:10462000307232002020002072CC02000102000013
:10463000020700000A18000038E0000006500000E1
:104640004827000070B514300C460546032A08D0F0
:10465000042A06D0102ADFD10968012206F060FF83
:10466000DAE70222FEA106F0A6FE206801682846CD
:1046700006F005FFD0E770B514300C460546032A56
:1046800008D0042A06D0102AC6D10968012206F0F3
:1046900047FFC1E70222F3A106F08DFE2068016802
:1046A000284606F010FFB7E730B589B0044600256C
:1046B000684605701021206916F016FE3021206929
:1046C00016F012FEE8A101A801F039F901A801F0E5
:1046D000AEF9207A01A902F030FC002818D0207A27
:1046E00001A906F0ABFB002812D1E3A105A801F057
:1046F00026F905A801F09BF9207A05A902F0EEFB46
:10470000002805D1207A05AA01A902F06BFC60807F
:104710004021206916F0E8FD16F0D3FD002804D0F2
:104720004121206916F0E0FD17E0257101236A465A
:10473000D1A12046FFF718FE6080FF280ED9D1498D
:1047400088420AD001236A46CFA12046FFF70CFE1B
:10475000FF2802D9D048608000E0658050212069A0
:1047600016F0C2FD608809B030BDCC48704770B506
:104770000446006901F0E6FFC11FFA3902D0C748BC
:10478000C01D49E70121204600F090FE054601F0DA
:104790004EF93420005D00280CD1E06F012809D1CA
:1047A000A06A002806D02046283002F0B0FA206B1C
:1047B00012F0DEF9207A294602F090FB6080204654
:1047C00000F046FD28E770B50446006901F0BAFF25
:1047D000C11FFA3902D0B148C01D1DE70121204692
:1047E00000F064FE054601F022F90221204600F0A7
:1047F0005DFE064601F01BF901223146284601F014
:104800003FF9002802D0A548363005E7207A324625
:10481000294602F0E7FB6080204600F019FDFBE628
:10482000F8B5002504464580006901F08BFFC11FE3
:10483000FA3902D09948C01DF8BD0121204600F088
:1048400035FE064601F0F3F8207A314602F075FB9A
:1048500000281BD016F01DFE6080FF28ECD8207ABF
:104860003146226B12F08CF96080FF280AD820793B
:104870000428206B0DD0012112F016F9608080B25F
:10488000FF2808D9204600F0E3FCF8BD834811302A
:10489000F8BD0021F0E7A06A002803D020462830A8
:1048A00002F035FAA01C0090207A00230122314644
:1048B00002F0DAF9A062E5800221206901F064FFCC
:1048C000206985802046FFF717FD6080DAE710B584
:1048D00004462030007D002816D0206901F032FF08
:1048E000C11FFD3902D1206B12F0FAF9206B12F0D2
:1048F000ADF96080FF2803D82046FFF7FDFC6080FB
:10490000204600F0A5FC10BD6448223010BD10B553
:104910003421095C002904D0FF210069023101F033
:10492000CFFE002010BD10B50446006901F00AFF5B
:10493000C11FFD3902D05948343010BD206B12F030
:1049400098F96080002802D12046FFF798FD2046A4
:1049500000F07EFC10BDF0B50446007989B0062851
:1049600010D0002005901A2006F052FC019000287B
:1049700010D018256846058101272046143002AE64
:1049800004901EE00121204600F090FD059001F00A
:104990004EF8E8E742486080204600F059FC09B034
:1049A000F0BD0621204602F08CFC68460289019980
:1049B000049806F000FD0D21049806F091FD68466C
:1049C00005813946781C009687B2207A019B059AAA
:1049D00002F0CBFA0028E4D101A806F01DFC00206B
:1049E000DDE7FEB50446C06F694680B201F0E2FE25
:1049F0006080FF2803D9204600F02AFCFEBD002578
:104A00002746143750E00721204602F05AFCE06F99
:104A100081B2384606F0E9FC2021384606F060FDF8
:104A20002946384606F0E1FC0126E06F01AA80B273
:104A300029B201F0E8FE608000280ED1202138461E
:104A400006F04EFD68468188384606F0CEFC6D1CA7
:104A5000761CB6B2ADB2082EE7D90D21384621E05A
:104A60004F2700004227000022246175746F727581
:104A70006E242E6E6577220022246175746F727524
:104A80006E2422000A18000022246175746F72756A
:104A90006E242E65727222002407000007E00000D9
:104AA0000102000006F01CFD684600888542AAD37A
:104AB0000020FEBDF0B50446C06F89B080B26946E3
:104AC00001F078FE6080FF2854D80121204600F0D4
:104AD000EDFC064600F0ABFF304600F041FFCD4D47
:104AE000002812D0204638303146074605F08DFFA9
:104AF00002A9384600F0FAFC6080FF283AD86946DF
:104B000008890988491E884201DA284647E740009B
:104B100006F07EFB0390002832D03146384605F07F
:104B200074FF002069460DE007A9384600F0EBFB52
:104B3000608069460988039A49000798505269467F
:104B40000888401C08800846098800898142EBD308
:104B500003980690684601898182E06F012280B245
:104B600005A901F071FE608003A806F055FB60887E
:104B7000FF2803D9204600F06BFB10E700200EE76A
:104B8000A448C01F0BE73EB5044602AA6946FFF7DA
:104B9000C4FC00282ED10821204602F092FB207987
:104BA000092806D00A280BD00B2810D00C281BD1BE
:104BB00014E06846828802A92046FFF7FEFC13E055
:104BC0006846828802A92046FFF70EFD0CE0684681
:104BD000828802A92046FFF735FD05E068468288F5
:104BE00002A92046FFF747FD20460D21143006F0AC
:104BF00077FC00203EBD3EB504466A4601A9FFF79A
:104C00008CFC002813D15820005B82492546800780
:104C1000C91D803500286846008909DB102809D0A5
:104C2000296806F0C6FB002806D17A4808303EBD48
:104C3000102801D008463EBD68460089032804D0EC
:104C4000042802D010281ED103E0009928680860CB
:104C500019E0009805F078F80221204600F026FCC3
:104C6000054600F0E4FE284600F07AFE03460022E6
:104C70002946009805F044F96080FF2803D92046B2
:104C800000F0E6FA3EBD00203EBD0020704738B57A
:104C900004460A2102F015FB204614300546E16F58
:104CA00006F031FC0921284606F01AFCE06F81B2BB
:104CB000204617F045F9002817D1E06F81B2204651
:104CC000FFF79AFA002810D1E06F694680B212F01F
:104CD0009EF9002804D02846009906F014FC04E050
:104CE0001B224DA1284606F066FB0D21284606F042
:104CF000F7FB002038BD7CB50446002060802069A9
:104D000001F020FDC11FFA3902D0424812387CBDA3
:104D10000121204600F0CAFB054600F088FE207AFB
:104D2000294602F00AF9002802D03A480E387CBD24
:104D300001A80090207A00230222294601F094FF66
:104D4000E062002808D0FF210431206901F0B8FC9E
:104D5000204600F07DFA7CBD68468088354988424F
:104D600000D0081F6080F3E710B504460020608083
:104D7000206901F0E7FC01462648CA1F1730FC3ABB
:104D80000CD1E16A002909D020462C3001F0BFFF88
:104D9000FF210231206901F093FC002010BD10B505
:104DA0000021FFF748FB10BD10B50121FFF743FBC1
:104DB00010BD70B5044600206080206901F0C2FC7F
:104DC000C11FFA3902D01348123825E41148E16FA7
:104DD0001E3801291AD00029F7D180200559002159
:104DE000284616F0BAFA0028EFD10021284603F031
:104DF000C1FF0028E9D12946204617F04DF80028C8
:104E0000E3D10121284616F0A8FA05E40025ED4378
:104E1000E5E7000020E000004C6169726420546501
:104E200063686E6F6C6F676965732C202863293225
:104E3000303132000D180000F8B504468E000D46E2
:104E4000304606F0E5F9E94F6060002811D03046A1
:104E500006F0DEF9A06000280DD03146606817F03A
:104E6000B8F93146A06817F0B4F9258000206080B9
:104E7000F8BD3846F8BD201D06F0CEF9F9E77047B9
:104E8000704710B50C460246D9A1204617F076FAB5
:104E9000204610BD38B500221446009202E0401CA6
:104EA000491E89B20278202A01D80029F7D1D2B24E
:104EB0002D2A02D02B2A04D008E000290DD001248D
:104EC00001E0002909D0491E89B2401C002904D004
:104ED0000278302A01D3392A01D9002038BD6A4628
:104EE00005F036FEC449884201D1C44800900098BC
:104EF000002CF3D0404238BD20280FD33A280DD0E3
:104F00002A280BD03F2809D0222807D03C2805D0DA
:104F10003E2803D07C2801D0012070470020704734
:104F200010B5182006F074F900280DD000210A46AB
:104F30000C234B431C461B185A600253491C5A80D1
:104F400089B29A600229F3D310BD70B50E4615469A
:104F5000002803D0022B04D3A94870BDA348401CED
:104F600070BD0C214B431C186068002805D102213C
:104F70002046FFF761FFFF28F2D860882188884229
:104F800004D3204600F0ECF8FF28E9D86188606877
:104F9000890046506088A1688200401C60808D5066
:104FA000002070BD30B506E004780D78401C6C40E0
:104FB000491C1470521C1C465B1E9BB2002CF3D182
:104FC00030BDF8B51D46069E07460C469446A942DC
:104FD00005D10B4632466146FFF7E4FFF8BDAC420F
:104FE00009D20B4632466146FFF7DCFF60462A1BBA
:104FF0000119301906E032466146FFF7D3FF621B04
:105000007919701917F0BEF8F8BDF0B57D4E11E0B2
:1050100000230C78491CC507E707ED0FFF0FBD42C1
:1050200002D04008704000E040085B1CDBB264081E
:10503000082BF0D31346521E92B2002BE8D1C04386
:1050400080B20102000A014388B2F0BD884201DB50
:10505000904201DD0020704701207047884201DA4C
:1050600008467047904201DD1046704780B2704795
:1050700010B50346002005E01C785B1C944205D067
:10508000401C00B28842F7DB0020C04310BDF8B5D9
:1050900006460D4614460CE03278761C54A168464C
:1050A00017F06CF9684600782070684640786070A8
:1050B000A41C28466D1EADB20028EDD1F8BD002A13
:1050C0000FD000290DD000280BD08918491E03E00D
:1050D0000B78491E0370401C1346521E92B2002BDF
:1050E000F6D17047FFB5CD082D18480781B0400FA5
:1050F0000290D808801803905F0702980A9C7F0FDF
:1051000000281ED00821081A86B2A64200D92646D9
:105110003946039800F04FF82A466D1C3146029B31
:1051200000F056F8B81987B2A01B84B209E03946DE
:10513000039800F040F8287008376D1C083CBFB297
:10514000A4B2072CF3D8002C08D03946039800F0FD
:1051500032F82A460023214600F03AF805B0F0BDA7
:105160003EB50446002001906946029008804880C0
:105170002088801C81B26846FFF75EFEFF2819D8A0
:10518000208861688200019816F0FCFF2088A168E1
:105190008200029816F0F6FF608869464880201D5C
:1051A00006F03AF82046083006F036F8684607C898
:1051B00007C400203EBD4B075B0F0822D21AC90866
:1051C000081801784078D94090400843C0B2704731
:1051D00010B50D4C61182039C97F0840984099409E
:1051E00013788B430343137010BD000001020000CD
:1051F000253032580000000003150000FFFFFF7F3C
:10520000012400000884000024C9020010B50446EF
:1052100005F0ECFBFF2801D9F84810BD608B002891
:10522000FBD0F648C01E10BD10B50022012902D0E7
:10523000022905D102E002465C3201E002466C32EE
:10524000846C436C016CC06C1AC20C3AD06010BD07
:1052500001464088002804D0E94A821801D0C8805D
:1052600070470020704770B504460D46403001F08D
:10527000A5FC6080FF2803D92046FFF7E9FF70BD39
:1052800001212046FFF7D0FF204625713830FFF777
:10529000BDFF70BD10B5044605F0A8FBFF2809D876
:1052A000608B002807D02046083005F001FC00285C
:1052B00004D0002010BD1720000210BDD14810BD41
:1052C00070B50C4601461546204605F011FF002832
:1052D00003D0001BC008C000401970BD70B5044663
:1052E00038300D460646FFF7D5FFFF2802D9C348E0
:1052F000083070BD01212046FFF796FF257130462A
:10530000FFF784FF70BD10B505F0ACFCBE498842C4
:1053100002D11720000210BDBB49891E8842FAD174
:10532000B848801C10BD70B50D46014604463830A3
:105330007C310646FFF7E7FFFF2802D9AF48193056
:1053400070BD25713046FFF761FF70BDF8B50D46A1
:1053500001460446383016461F467C310090FFF760
:10536000D2FFFF2802D9A5481930F8BDE06FB0423E
:1053700001DBB84202DDA148001FF8BD257100988D
:10538000FFF744FFF8BDF8B5044638300E460090EC
:1053900005F02CFB6080FF2865D825464035688ADB
:1053A000002836D03078002709282DD1377097A1F2
:1053B000284600F0DEFA002801D00A2006E094A179
:1053C000284600F0D6FA002802D00920307012E0FA
:1053D00090A1284600F0CDFA002801D00B20F5E777
:1053E0008DA1284600F0C5FA002801D00C20EDE779
:1053F0003078002810D0009805F0F8FA6080FF2877
:1054000031D8688A002804D0284605F051FB0028CE
:1054100005D07A481E30F8BD09203070F4E701212C
:105420002046FFF701FF2F83009805F0D3FA608034
:10543000FF2818D8688A0028EDD0284605F077FEA6
:105440000028E8D0009805F0BDFA21467C3100988C
:10545000FFF759FF6080FF2805D8009805F0C6FACD
:105460006080FF2803D92046FFF7F2FEF8BD688A66
:10547000624C00280AD0284605F06BFE002805D0B3
:10548000288B0121084328830020F8BD2046F8BD61
:1054900010B50146614805F02BFE002805D05F4994
:1054A000401AC008C0005031401810BD012903D077
:1054B000022903D0002070475C3070476C30704781
:1054C00070B50D46044605F091FAFF2808D8608BA8
:1054D000002806D0A0680078A84205D04948C01C22
:1054E00070BD1720000270BD002070BDF8B50746E2
:1054F00000200125ED0303260C460880F6036946CB
:105500003846FFF700FFFF2805D800984019B04241
:1055100002D33C48001DF8BD2088401C208038463E
:1055200005F058FAFF28F6D8788B0028E7D1F8BDA7
:105530003248801C704770B5044638300646FFF785
:10554000A9FEFF2802D92D48001D70BD204640301D
:10555000054601F033FB6080FF280DD8012120466D
:10556000FFF762FE032020710020E067304605F05F
:1055700031FA6080FF2803D92046FFF769FE70BD2D
:10558000688A0028FBD0304605F01CFA24A1284682
:1055900000F0EFF9002805D00120E0673046FFF762
:1055A00035FE70BD1548283070BD10B50446012188
:1055B00000F08AF9FF2813D801212046FFF734FEB6
:1055C0000121204600F080F9FF2809D80221204659
:1055D000FFF72AFE1520207120463830FFF716FE0F
:1055E00010BD10B50022102100F05CF910BD10B5FF
:1055F000112101713830FFF709FE10BD05E00000F0
:10560000FFF8FFFF01170000041500004827000005
:10561000442700004F270000422700002CC9020049
:105620002B000000122159E610B50122042100F0E0
:1056300039F9E2E710B50122142100F033F9DCE773
:1056400070B504463830054605F0D0F96080FF2873
:105650000FD826464036708A00280ED0304605F016
:1056600027FA00280DD0304601F0A8FA6080FF2804
:105670000AD92046FFF7ECFD70BD052020710020FF
:1056800070BD9D486080F4E701212046FFF7CCFD06
:10569000062020712846FFF7B9FD70BD072142E6BC
:1056A00070B50146044638307C310546FFF72BFEC5
:1056B000FF2801D9914870BD3D212846FFF700FF22
:1056C0006080FF2805D82846FFF7E4FD6080FF28AA
:1056D00003D92046FFF7BCFD70BD01212046FFF72E
:1056E000A3FD082020712846FFF790FD70BD10B57E
:1056F000044609202071211D2046FFF744FE0028A2
:1057000003D120463830FFF781FD76E770B50446B7
:105710000D202071211D2046FFF735FE00280AD1FB
:1057200020463830064605F055F96080FF2803D939
:105730002046FFF78DFD70BD25464035688A00285C
:105740000FD0284605F0B4F900280DD0288B02218F
:10575000084328832046FFF767FD304605F032F9FD
:105760000CE06648083070BD214680313046FFF7B6
:10577000CAFDFF2802D96148193870BD3046FFF7CD
:1057800045FD70BD10B50E2101713830FFF73EFDAB
:1057900033E710B5162101713830FFF737FD2CE7DC
:1057A00010B5132101713830FFF730FD25E7F8B54A
:1057B00004463830074605F00DF96080FF282ED8E2
:1057C00025464035688A002819D0384605F0FAF891
:1057D0000020E0604AA1284600F0CBF8474E173E73
:1057E000002810D0384605F001F96080FF2816D84F
:1057F000688A00282DD0434A1146A0391AE0262095
:1058000020710020F8BD40A1284600F0B2F8002821
:105810001AD0384605F0EAF86080FF2803D9204600
:10582000FFF716FDF8BD688A002812D0354AB0325D
:10583000114610393846FFF743FDE060002808D0D4
:10584000016820468847F8BD2E4AB83A11461839F3
:10585000F0E73046F8BD10B52C4B00222721FFF7AA
:1058600075FDCAE670B5044638302A210546FFF7B3
:1058700027FE6080FF2813D9284605F0D3F821467B
:1058800080312846FFF73FFDFF2801D91B4870BD36
:105890000020E067292020712846FFF7B7FC70BD83
:1058A0000120F6E770B504460D4616463830FFF77E
:1058B000F1FCFF2802D91148113870BD3246294643
:1058C0002046FFF7D0FC70BD10B504463830FFF716
:1058D000E1FCFF2802D9094815388EE62046403001
:1058E00001F06CF96080FF2803D92046FFF7B0FC77
:1058F00083E6002081E60000011700001EE00000A2
:105900002B0000009CCA020026000000FFFF0000E0
:1059100070477047002804D00021016081808160B9
:1059200081817047002809D00023002902D001603E
:10593000828001E00360838083608381704770B55B
:10594000040008460BD00025002804D0206016F083
:105950004CFCA08001E02560A580A560A58170BDFC
:105960000021002803D081888089081881B2084668
:105970007047F8B5054600680090AE880C46002ECA
:1059800011D12078002826D112E02078641C16F06E
:10599000E1FB0746009800990078491C009116F039
:1059A000D9FB874217D13046761EB6B20028ECD11B
:1059B000AE68AD89002D10D1207800280BD111E000
:1059C0002078641C16F0C6FB07463078761C16F06B
:1059D000C1FB874201D00020F8BD28466D1EADB244
:1059E0000028EDD10120F8BD70B514468288858964
:1059F00055198D4219D98A4203D90068002B05D167
:105A000008E0891A806889B2002B03D0405CA0426C
:105A100009D00AE0405C16F09DFB0546204616F0D2
:105A200099FB854201D1012070BD002070BD10B5E9
:105A300002681178222919D1521C02608188491EFE
:105A40008BB283808189002911D0491E89B281815E
:105A50008268545C222C01D0491C8181002B05D125
:105A6000C1680260416000218181816010BD5B1EC0
:105A700099B28180525C222AF8D0491C818010BDE5
:105A8000F7B582B00298FFF76BFF02460398FFF765
:105A900067FF824219D1029816460068009002986A
:105AA00085880398046880882AE000982178007827
:105AB00088420DD00499002907D116F04BFB074608
:105AC000207816F047FB874202D0002005B0F0BDD9
:105AD0006D1E2D042D0C03D00098401C009004E096
:105AE000029880680090029885890198401E000401
:105AF000000C019001D0641C03E003988468808945
:105B000001903046761EB6B20028CED10120DDE7E6
:105B100030B582888589002453199BB28B4203D803
:105B200084808481002030BD5B1A9BB28A4205D9F3
:105B3000521A828002685118016007E0891A89B2FE
:105B40006A1A82808268511801608481184630BDCB
:105B50000160028100218180C180704770B50446D8
:105B6000FE48814202D35120000270BD491C8DB213
:105B7000284605F04DFB2060002804D02581002038
:105B8000A080E08070BDF64870BD002806D0016896
:105B9000002903D00089401E80B270470020704762
:105BA00010B5040007D02068002802D0204605F078
:105BB00033FB0020208110BD00218180C18070470F
:105BC0008188C288891A09B2002902DC008940183C
:105BD00001B2491E08B270470146C0888A88801AFF
:105BE00000B2002802DA0989081800B270470621BD
:105BF0000422415E825E914201D101207047002063
:105C00007047F8B507460C4615461046FFF7D8FF13
:105C1000844200DD84B200941DE006200421285E49
:105C2000695E884200DB2989091A0EB2A64200DDAE
:105C300026B2296832460818394616F0A3FAA01B86
:105C400084B2E88808218019695EBF1900B28142D8
:105C500000DC0020E880002CDFD1009800B2F8BD05
:105C6000F8B50F4613460446FFF7B6FF984200DD2D
:105C700018B286B200961DE004200621205E615E07
:105C8000884200DB2189091A0DB2B54200DD35B228
:105C900021682A460918384616F074FA701B86B235
:105CA000A08808214019615E7F1900B2814200DCA2
:105CB0000020A080002EDFD1009800B2F8BD10B502
:105CC0000423C35E02680624045FD2189C420A6063
:105CD00006DBC2888088101A88800020886006E071
:105CE00002898388D21A8A8002688A60C088888183
:105CF00088888989401880B210BD7FB50E46144649
:105D00006946FFF7DCFFA04200D20446002C12D007
:105D1000684685882046A54200D305462A46304677
:105D2000009916F02FFA601B0204120C03D07019B0
:105D3000029916F027FA204604B070BDF8B5002687
:105D4000968005460F4696810421C088695E1446F8
:105D5000401A00B2002841D00EDD2A68531881B2E3
:105D60003A4618462360FFF783F9002801DB401C00
:105D7000A0800420205E21E0286840182060298946
:105D8000AA88891A89B2A1803A46FFF771F90028DA
:105D90000EDA2868A060E988A1813A46FFF768F921
:105DA000002802DAA680A68104E0401CA08101E060
:105DB000401CA080A088A189401800B200280DD105
:105DC000E9880822491CAA5E09B28A4200DC002147
:105DD0000422AA5E8A4201D10020C043F8BDF7B573
:105DE000002706461546002A2BD00198002828D007
:105DF00006200421305E715E884202DB3189091A77
:105E000001E0091A491E8CB2A54200D22C46002C92
:105E100017D0316822460818019916F0B3F93819DD
:105E200087B20198082100190190281B85B2F088DB
:105E3000715E001900B2814200DC0020F080002D6C
:105E4000D6D13846FEBD10B506240422045F825E1A
:105E5000944206DBA31A9BB2994207D38480194669
:105E600012E003899B1A9BB2994202D25218828097
:105E70000AE0C91AC28889B2914202D281805818B8
:105E800001E08480981881B2084610BD82888A4259
:105E900001D9006802E0891A806889B2405C7047C5
:105EA000002808D00022002906D083888B4206D320
:105EB000818082608281704702608280F9E78289F6
:105EC0009A188A42F7D9C91A8181704770B5044679
:105ED0002448814202D35120000270BD091D88046C
:105EE000050C284605F094F92060002804D025818F
:105EF0000020A080E08070BD194870BD10B500285A
:105F000001D005F089F910BD8188C288891A09B2CB
:105F1000002902DC0089401801B28810401E704739
:105F2000C1888288891A09B2002902DA00894018DA
:105F300001B28810704710B50C460346FFF7E4FF26
:105F4000042817D30621595E186840180460D888C1
:105F5000001D00B2D8800821595E05E0FE7F0000D8
:105F600001020000FF1F0000884201DB0020D880F2
:105F7000002010BD1F4810BD30B50D46034600245B
:105F8000FFF7C2FF0146002004290AD2998808229F
:105F9000091D09B299809A5E914200DB9880154CE8
:105FA000A41C06229A5E196889180D60D9880822F7
:105FB000091D09B2D9809A5E914200DBD880204643
:105FC00030BD06230422C35E825E93420FD0036875
:105FD0009A1812680A6081880822091D09B2818016
:105FE000825E914201DB00218180002070470148E0
:105FF000401C70470151000010B513F041FD00F046
:1060000003F800F048F810BD10B5002005F028FD99
:106010000A2005F025FD01F0CDF9142005F020FD42
:10602000FEF72DFF04F012FB1E2005F019FD05F010
:10603000FEF805F03FF9282005F012FD00F09AFC6B
:1060400002F037FE05F078FB322005F009FD00F084
:106050009EFD3C2005F004FD00F0AAFB462005F063
:10606000FFFC13F011FD502005F0FAFCFFF750FC87
:1060700003F062FE04F096FB04F066FE10F080FC74
:1060800001F00CF800F029FB5A2005F0E9FC64202F
:1060900005F0E6FC10BD10B5002005F0F3FC0A2069
:1060A00005F0F0FC04F0D8FA00F06BFC02F051FEB1
:1060B000142005F0E7FC00F07CFB1E2005F0E2FC5C
:1060C00013F0E6FC282005F0DDFC00F061FD05F092
:1060D00034FB322005F0D6FC01F06DF93C2005F0D0
:1060E000D1FC05F0A5F805F0E6F8462005F0CAFC5D
:1060F000502005F0C7FCFEF7C3FEFFF70AFC03F0D3
:106100001CFE04F050FB10F03FFC00F0C8FF00F054
:10611000FAFA5A2005F0B6FC642005F0B3FC10BD75
:1061200070B503460D460020FD4914461180002B32
:106130000AD1FC49CA69002A0FD00988090A022934
:1061400003D0F749891C218070BD104601F0E0F8AA
:106150002A46214610F003FF70BDF149C91CF2E741
:10616000F8B50F46164605466A460821FFF7D8FFE0
:10617000040008D010F020FF062807D2204610F0B7
:106180000FFFE948F8BD68460088F8BDE74920469A
:1061900010F01FFF3946204610F01BFF3146204605
:1061A00010F017FF2946204610F000FFF8BDF8B5A3
:1061B0000F46164605466A460921FFF7B1FF04005F
:1061C00008D010F0F9FE062807D2204610F0E8FEAD
:1061D000D548F8BD68460088F8BDD4492046491C1A
:1061E00010F0F7FE3946204610F0F3FE3146204607
:1061F00010F0EFFE2946204610F0D8FEF8BDF8B5A5
:106200000F46164605466A460F21FFF789FF040030
:1062100008D010F0D1FE062807D2204610F0C0FEAC
:10622000C148F8BD68460088F8BDC0492046C91D70
:1062300010F0CFFE3946204610F0CBFE3146204606
:1062400010F0C7FE2946204610F0B0FEF8BDF8B5A4
:106250000E4605466A460A21FFF762FF040008D091
:1062600010F0AAFE042807D2204610F099FEAE488E
:10627000F8BD68460088F8BDAD49204610F0A9FE7B
:106280003146204610F0A5FE2946204610F08EFE2D
:10629000F8BDFFB581B0164605461F466A460B217C
:1062A000FFF73EFF040009D010F086FE082808D250
:1062B000204610F075FE9C4805B0F0BD6846008889
:1062C000FAE79C49204610F084FE2046029910F01F
:1062D00080FE3146204610F07CFE3946204610F004
:1062E00078FE2946204610F061FEE5E7FFB581B053
:1062F000164605461F466A460521FFF711FF0400B2
:1063000008D010F059FE082807D2204610F048FEA9
:106310008548D1E768460088CEE786492046891F30
:1063200010F057FE2046029910F053FE31462046E9
:1063300010F04FFE3946204610F04BFE294620460D
:1063400010F034FEB8E7F8B50F46164605466A4623
:106350000C21FFF7E5FE040008D010F02DFE062802
:1063600007D2204610F01CFE6F48F8BD6846008832
:10637000F8BD6E492046091D10F02BFE3946204617
:1063800010F027FE3146204610F023FE2946204615
:1063900010F00CFEF8BDF8B50F46164605466A46E5
:1063A0000E21FFF7BDFE040008D010F005FE062800
:1063B00007D2204610F0F4FD5B48F8BD684600881F
:1063C000F8BD5A492046891D10F003FE3946204683
:1063D00010F0FFFD3146204610F0FBFD2946204617
:1063E00010F0E4FDF8BDF8B50F46164605466A46BE
:1063F0000D21FFF795FE040008D010F0DDFD062802
:1064000007D2204610F0CCFD4748F8BD684600880A
:10641000F8BD46492046491D10F0DBFD39462046AF
:1064200010F0D7FD3146204610F0D3FD2946204616
:1064300010F0BCFDF8BDFFB581B0164605461F46FD
:106440006A460121FFF76CFE040008D010F0B4FD8D
:106450000C2807D2204610F0A3FD33482CE76846ED
:10646000008829E73449204610F0B3FD2046029900
:1064700010F0AFFD3146204610F0ABFD3946204606
:1064800010F0A7FD20460A9910F0A3FD20460B99B5
:1064900010F09FFD2946204610F088FD0CE7FFB55F
:1064A00081B0164605461F466A460321FFF738FEAF
:1064B000040008D010F080FD082807D2204610F014
:1064C0006FFD1948F8E668460088F5E61949204648
:1064D000083910F07EFD2046029910F07AFD314611
:1064E000204610F076FD3946204610F072FD294610
:1064F000204610F05BFDDFE6FFB581B0164605468D
:106500001F466A460221FFF70BFE040016D010F06A
:1065100053FD0A2815D2204610F042FD0248CBE672
:10652000012000006421002036070000080004005C
:106530000A0002000B00060001000A0068460088FD
:10654000BAE69349204610F044FD2046029910F027
:1065500040FD3146204610F03CFD3946204610F003
:1065600038FD20460A9910F034FD2946204610F0E7
:106570001DFDA1E6F8B50F46164605466A460421FC
:10658000FFF7CEFD040008D010F016FD062807D254
:10659000204610F005FD7F48F8BD68460088F8BD2C
:1065A0007D49204610F015FD3946204610F011FDBA
:1065B0003146204610F00DFD2946204610F0F6FC2D
:1065C000F8BDFFB581B0164605461F466A4606214E
:1065D000FFF7A6FD040008D010F0EEFC082807D253
:1065E000204610F0DDFC6B4866E66846008863E6EE
:1065F0006A49204610F0EDFC2046029910F0E9FCB3
:106600003146204610F0E5FC3946204610F0E1FC0A
:106610002946204610F0CAFC4EE6F8B50E4605465F
:106620006A460721FFF77CFD040008D010F0C4FC87
:10663000042807D2204610F0B3FC5648F8BD68463F
:106640000088F8BD5649204610F0C3FC314620466C
:1066500010F0BFFC2946204610F0A8FCF8BDFFB59D
:1066600081B0164605461F466A460021FFF758FDD1
:10667000040008D010F0A0FC0A2807D2204610F031
:106680008FFC444818E66846008815E60121C904D5
:10669000204610F09EFC2046029910F09AFC3146EC
:1066A000204610F096FC3946204610F092FC204619
:1066B0000A9910F08EFC2946204610F077FCFBE585
:1066C00070B5044600880D46A84204D0A269002A8D
:1066D00001D020469047258070BDF8B5314E00248A
:1066E0002C2025464543AF190146384615F071FD6B
:1066F0002D48705301213846FFF7E2FF641C240443
:10670000240CEDD0F8BD704730B504460020039D41
:10671000002C0ED100290CD0002A0AD0002B08D062
:10672000002D06D01F48448084600C302EC01C38D9
:10673000C46130BD10B5002803D11A481C3000F0E8
:1067400000FD10BD0088704770B500250E4600287A
:1067500011D1144CE06900280DD02188090A0229C2
:1067600009D1314600F0CFFD002804D03146E06960
:1067700000F0C2FD0125284670BD002801D00B485D
:10678000704708488088704710B514F0A9FD10BD07
:10679000020008003607000004000400060006009E
:1067A0000700020064210020017F0000012000009A
:1067B0007047704770B504460D4602F026FB294627
:1067C000204602F0EEFF044602F026FB38488442E1
:1067D00000D1384C204670BD38B505460C46012026
:1067E0006946088002F011FB6B46224600212846CC
:1067F00002F0F3FF044602F00FFB2D48844200D163
:106800002C4C204638BDF8B505460C46012069469B
:106810001646088002F0F9FAA1B26B4632462846C5
:1068200002F0DBFF044602F0F7FA002C05D0204806
:10683000844200D11F4C2046F8BD684600880028DD
:10684000F9D101242403F6E770B504460D46164637
:1068500002F0DBFA32462946204602F0F5FF0446F4
:1068600002F0DAFA1248844200D1124C204670BD80
:1068700070B504460D4602F0C8FA2946204603F0DA
:10688000E5F8044602F0C8FA204670BD70B504462B
:106890000D4602F0BAFA2946204603F034F90446C0
:1068A00002F0BAFA0248844200D1024C204670BD80
:1068B0001B19000001100000F0B504468DB00D4614
:1068C000164680071FD0A008800001680291034689
:1068D00002A901E0491C5B1CA342FBD3041D04E098
:1068E000287808706D1C491C761E002E03D01846AF
:1068F0005B1CA042F4D3241F2046029915F0D3F864
:10690000002832D1241DB7081AE0082F01D9082029
:1069100000E0384680B200908004000C02460B90E4
:10692000294603A815F02EFC03A92046009A15F06D
:10693000C1F8002819D10B9824182D1800983F1A77
:10694000002FE2D1B107890F12D02068029002A86F
:1069500003E02A786D1C0270401C491EF9D22046C3
:10696000029915F0A0F8002802D083480DB0F0BDC0
:106970000020FBE781480178002901D10121017045
:106980007047704710B5026880684843101815F0CA
:1069900087F810BD062807D27949000140188068A1
:1069A000002800D0012070470020704770B50246D3
:1069B0000025FFF7EFFF002810D07149100146189D
:1069C000002408E021463046FFF7DCFFFF2800D90D
:1069D0000546641CA4B2B089A042F3D8284670BD15
:1069E000062804D26649000140184068704700201C
:1069F0007047062804D2624900014018C0897047D8
:106A000006207047020F5E4B1201D21807D000011A
:106A100053680009834205D85748401D70470D2030
:106A2000400270471268105A08800020704770B505
:106A300003460C46000F5249000140180AD01B01C2
:106A400051041B090A0C45689918A94205D94A48FE
:106A5000401D70BD0D20400270BD0068C118204669
:106A600015F090FB002070BD70B503460C46000F7A
:106A700043490001401808D01B011B0945689918BB
:106A8000A94205D93C48401D70BD0D20400270BD93
:106A90000068C118204615F075FB002070BD08B5D0
:106AA000020F374B1201D21807D0000153680009BA
:106AB000834205D83048001D08BD0D20400208BDA6
:106AC000830707D58008136880001B5800936B4626
:106AD000598004E013681B5800936B4619801268B4
:106AE0000099101814F0DFFF08BD30B4030F244CD8
:106AF0001B011B190AD00001000984185D68A41845
:106B0000AC4206D91C48001D30BC70470D20400225
:106B1000FAE71B6830BC18185200CDE630B4030FFA
:106B2000174C1B011B1908D0000100095D6884186F
:106B3000AC4205D91048001DE6E70D204002E3E70E
:106B40001B6830BC1818B7E6010F0D4A09018918F7
:106B500004D0096800010009081870470020704738
:106B6000010F074A0901891804D0000F496800077E
:106B7000801E081870470000011A00000C20002039
:106B80005CCB020010B500F0DBF8012010BD7047AF
:106B900010B500F068F800221146274803F05DFDAB
:106BA00010BD264801880029FCD00188491E0180BB
:106BB000704722480188491C018070471FB5014673
:106BC0000EC9C0686C460EC403906846FEF72FFFDE
:106BD00068468088002807D06946898940181828A7
:106BE00005D3174804B010BD1548801EFAE7684663
:106BF00000F011F80324E40200280AD068468089D6
:106C0000002804D002A800F006F8002801D00020D7
:106C1000E8E72046E6E770B58588046805E0207857
:106C2000FEF76AF9002806D0641C28466D1EADB236
:106C30000028F4D1012070BD856B01000E200020DA
:106C40000318000070B5FA4D002406206043401977
:106C500000F012FA641CA4B2032CF6D3F549EF201D
:106C600002F079F970BDEDE7FFB581B016460A9CD8
:106C7000FFF797FFEE4D0020A978002906D0401CB1
:106C8000AD1D80B20328F7D3EB480DE00020C043D0
:106C9000A880002DF8D0E74F012E1ED0022E09D07B
:106CA000032E07D0E448001F2080FFF782FF00205A
:106CB00005B0F0BD02F0A9F86A460299386802F002
:106CC000CDFB208002F0A8F82088FF2817D9DB49E7
:106CD00088420AD1D848401DE6E702F096F86A4695
:106CE0000299386802F06EFBEBE7D4491939884203
:106CF00002D1D148801DD7E7CF48801ED4E7AE70BF
:106D000068460088A880FFF754FF2846D0E710B5F2
:106D10000446FFF746FF002C0FD0206800280CD057
:106D200002F073F82068808802F0FBFB02F074F830
:106D3000206800F0A1F900202060FFF73AFF10BDA5
:106D400038B5BB4D002400950620604340190090E3
:106D50008078002802D06846FFF7D9FF641CA4B2EF
:106D6000032CF1D338BDF8B506460F4614461D4630
:106D7000FFF717FF02F049F86543AAB2B088394619
:106D800002F0EBFBFF2800D9002402F045F8FFF7E2
:106D900010FF2046F8BDF8B505460E46184650438C
:106DA00069461C460880FFF7FCFE02F02EF8A88812
:106DB0006A46314602F00EFCFF2803D900206946DE
:106DC000088006E06A462146108815F095F96A4663
:106DD000108002F021F8FFF7ECFE68460088F8BD4D
:106DE000FFB581B006461D460024FFF7DAFE02F02B
:106DF0000CF8012716E068460780B0886A460299B9
:106E000002F0E8FB00280FD16846008800280BD06C
:106E10000298641C01780398A4B2814204D00298BD
:106E2000401C0290AC42E6D301F0F6FFFFF7C1FE32
:106E300020463DE738B50446FFF7B3FE01F0E5FF15
:106E4000A088694602F0EFFBFF2801D900200090DE
:106E500001F0E2FFFFF7ADFE009838BD70B50446C3
:106E60000D46FFF79EFE01F0D0FFA088294602F0F4
:106E700028FC044601F0D0FFFFF79BFE002C01D058
:106E8000002070BD012070BD70B504460D46FFF7AF
:106E900088FE01F0BAFFA088294602F0F9FB0446FB
:106EA00001F0BAFFFFF785FE002C01D0002070BD75
:106EB000012070BD70B504460D461646FFF771FE01
:106EC00001F0A3FFA0883246294602F0C1FB044628
:106ED00001F0A2FFFFF76DFE204670BD1CB50C4609
:106EE000FFF75FFE53480068009001F08EFF2146D7
:106EF000684602F044FA040011D050481F3884421A
:106F000006D04E482A38844202D0401E844200D126
:106F1000002401F081FFFFF74CFE20461CBD01A9B3
:106F2000009802F022FCFF2804D9009802F066F8CD
:106F30000446EEE7404C641CEBE738B50C46FFF71F
:106F400030FE3C480068009001F05FFF2146684633
:106F500002F015FA044601F05FFFFFF72AFE002C4D
:106F600001D0002038BD012038BDFFB583B01D46DB
:106F70000C9EFFF716FE2F4800240068009001F0D9
:106F800044FF684601F0BDFF2D4F23E002AB022114
:106F90006846059A02F0AFF9002818D1328801AB93
:106FA0002946009802F0A5FB69468988B9420ED1AE
:106FB000641C0499A4B2A14209D100212954308053
:106FC00001F02AFFFFF7F5FD012007B0F0BD68468C
:106FD00001F06EFF0028D9D001F01EFFFFF7E9FD98
:106FE0000020F2E770B50C461546FFF7DAFD01F018
:106FF0000CFF10482A462146006802F096FC044621
:1070000001F00AFFFFF7D5FD204670BDF8B5044634
:107010000D4616461F4601F0F8FE3B46324629460D
:10702000204602F0C6FC044601F0F6FE2046F8BDFC
:107030009021002010200020081800002F190000C7
:10704000DFFF00000246104900200B46891D9342D5
:1070500002D10E4948407047401C0328F5DB002050
:1070600070470A494840032801D300207047062191
:10707000484305494018704710B50446062115F0ED
:10708000A8F80020A07010BD90210020DEC0DEC056
:10709000014870470048704740E000007047704763
:1070A000F8B504000E463CD0E06800283BD02069CB
:1070B000002838D06069002835D0842004F0A8F872
:1070C0000090002838D0842115F083F80098FF2123
:1070D000046102312046FFF7F3FA00982369E26861
:1070E000A168C3618261416161690162012101722C
:1070F0000025342105630D5445628562C562E06157
:107100002A46214630300FF043FC01460098FF2903
:1071100041800AD9684604F07FF887483080E561ED
:1071200001E0864808800020F8BD0571FDF7BCFA33
:1071300030800099488002E08048401E30800098EE
:10714000F8BD70B505001BD02C68206B002803D05B
:10715000204630300FF053FC606A002803D02046F0
:107160002430FFF7D4FDA06A002803D02046283041
:10717000FFF7CDFD284604F04FF80020286070BDD1
:107180006E4870BDF8B5044614300D460646002919
:1071900018D06B4885422CD10E226AA1304604F0EB
:1071A0000AF90921304604F09BF9206B81883046AA
:1071B00004F09CF9206B0FF0B3FD002807D00522E6
:1071C00064A10BE0042265A104F0F5F82CE0206B2B
:1071D0000FF0ABFD002804D0052262A1304604F078
:1071E000EAF80D21304604F07BF9206B0FF054FCD7
:1071F0001AE004225DA1304604F0DDF8280A694651
:10720000FDF73FFE01460222304604F0D4F8E8B212
:107210006946FDF736FE01460222304604F0CBF8FF
:107220000D21304604F05CF90120F8BD10B538306E
:1072300003F0EBFB10BD70B50446806BFEF790FBCE
:1072400000280BD020463830054603F0CFFB608085
:10725000FF2805D92046FDF7FBFF70BD00212CE07B
:107260005220005B0028F9D02846FEF711F9E060B3
:1072700000280FD000212171016820468847208016
:1072800001001AD1E068416820468847208001004B
:1072900013D170BD012204212046FDF7E4FF2080B8
:1072A00001000AD12046FDF7BBFA20800100F0D092
:1072B0003048814201D12F491139204600F035F87C
:1072C00070BDFEB506460A462BA1684615F056F875
:1072D00000246D460427381B82B2B369294600207A
:1072E000984721188CB2042C04D22D18F169002083
:1072F0008847F0E70420FEBD10B5006B002801D0E0
:107300000FF0C6FC10BD10B5006B0FF013FD10BDE3
:10731000006B7047002907D0002805D04B680A6829
:10732000896883614261C16170470246080000D0EC
:10733000D080508070470000081700000202000053
:10734000030700000A323109425245414B504F4970
:107350004E54000009457272300000000A30300DB2
:107360000000000009457272310000000A30310946
:107370000000000018E000000A2530326409000017
:107380007CB50B4C172600252088002809D0201D2D
:10739000019020886946401E08806088012202F022
:1073A00053FA6D1CA41DADB2B542EDD37CBD0000F7
:1073B000BCCB0200704710B501F021FD002801D0C0
:1073C000FFF7DEFF10BD0000392801D8303804E097
:1073D000462801D8373800E0573880B27047FFB5EB
:1073E00081B007460A9E002034881D463080002B5D
:1073F00036D0002C34D0002F2DD131E014F0A6FE71
:1074000000682A78805C81004140080602D404208C
:1074100005B0F0BD0398C0B2062802D0072819D1E4
:1074200006E01046FFF7D0FF0003C01D80B210E059
:107430000398000A010909011046FFF7C5FF40182B
:10744000C1B20298B84700280CD03088401C308068
:10745000062003906D1C2046641EA4B20028CDD1E6
:107460000398D5E70520D3E7FFB581B00A9C00203B
:10747000268817461D462080002B4DD0002E4BD06D
:107480000198002843D147E03806000E06D00128B5
:1074900023D002284CD0032838D111E029782229A2
:1074A0000AD05C290AD0019A0298904700284FD050
:1074B0002088401C208029E0032727E0012725E0C1
:1074C0002978222946D1019A0298904700283FD076
:1074D0002088401C2080002718E02F78722F1DD0B4
:1074E0006E2F1DD0742F1DD0222F1DD05C2F1DD0CC
:1074F00014F02CFE0068C05D81004140080629D5CB
:107500003846FFF761FF0003801C87B26D1C3046D0
:10751000761EB6B20028B7D1384679E70D21D2E7FA
:107520000A21D0E70921CEE72221CCE75C21CAE776
:1075300014F00CFE00682978405C8200424010067E
:1075400008D53A0A0846FFF73FFF8018C1B2BAE7EC
:1075500005205DE704205BE7FFB5002081B01E88B1
:1075600015461C461880002A69D0002E67D0019865
:10757000002864D09446002253E02F780A9B0B9891
:10758000202F01D37F2F01D3012706E0002B26D126
:107590002AE01978B94221D10227002A06D0019B9E
:1075A000614602989847218840182080022F1ED0FB
:1075B0002878092829D00A2824D00D281FD0019B1B
:1075C000012220A10298984721884018208028781D
:1075D0006946FDF756FC0146022218E05B1C014695
:1075E000401E80B20029D4D1521C92B218E05C2116
:1075F00068460170297841700222694607E002223C
:1076000011A104E0022211A101E0022210A1019BBC
:1076100002989847218840182080681C84460022E0
:107620006D1C3046761EB6B20028A6D1002A06D0C0
:10763000019B6146029898472188401820800020CD
:10764000E6E600005C0000005C7200005C6E00007A
:107650005C74000038B504466946FFF7D3F9FE496B
:10766000FF2808800CD868460088FF21090288425C
:1076700004D1204601F0F2FB002801D019200002BD
:1076800038BD0106C917491C4006020E0120130629
:1076900003D5002902D00020704701215206401C6A
:1076A000120E80B20728F2D90120704738B504467F
:1076B0006946801CFFF7A6F9E749FF2808801ED815
:1076C00068460088000AFFF7DCFFE44D002817D069
:1076D00068460088C0B2FFF7D4FF002810D0684683
:1076E0000088010A41400906090E0BD0C1B200060C
:1076F000000C014368460180A01CFFF7D0F938BD9B
:10770000284638BD002038BD70B50446050F0E462A
:107710002846FFF765F91634A11989190B011B09D1
:10772000CF4A834209D3290708181268401EE9008E
:1077300089180861C920400170BD1268E8008018EE
:107740000161002070BD10B504461430FFF7A7F9A1
:10775000FF2802D82046FFF7A9FF10BD38B5044620
:107760006946801CFFF74EF9BB49088068460088CF
:10777000000AFFF786FFB94D00280FD06846008841
:10778000C0B2FFF77EFF002808D068460288100AC2
:1077900050400006000E03D0002038BD284638BDFA
:1077A000002A0AD0110A50060902000E0143684659
:1077B0000180A01CFFF773F938BDA848273838BDF1
:1077C000F8B5A54EA74F0546002469462846FFF7A1
:1077D00019F93080FF2803D868460088B84201D0E4
:1077E0000020F8BD641CAD1CA4B20B2CEDD301200D
:1077F000F8BD70B50D460646FFF7E2FF00280FD032
:107800003046FFF7ABFF944CFF28208007D8FF20BD
:107810002946000201433046FFF741F9208070BD40
:107820008E48113870BD062802D38C483038704716
:107830008B4AC000126880180069086000207047F9
:10784000F7B50546086882B00E46000F6946FFF797
:10785000EAFF814CFF28208032D801A92846FFF793
:10786000D1F82080FF282BD8684681880098FFF740
:10787000C0FF2080FF2823D8284601A91430FFF735
:10788000C1F82080FF281BD868468088163547003D
:107890000098029516300025009014E0029801A986
:1078A0004019FFF7AFF82080FF2808D800986946F4
:1078B00040198988FFF7F3F82080FF2802D980B2A9
:1078C00005B0F0BDAD1CBD42E8D30098163800905D
:1078D00004980128306824D00C3002226946FFF752
:1078E00004F9208080B2FF28EAD8009802223146AD
:1078F000001DFFF7FAF82080FF28E1D8F803010CFB
:10790000684681800098FFF71EFF2080FF28D7D8A7
:10791000684681880098FFF7F7FE009830600020E5
:10792000CEE70830D9E7F7B582B00646039815468A
:10793000000F1146FFF777FF474CFF282080BFD884
:1079400069463046FFF75EF82080FF28B8D86946C0
:1079500009882868FFF74DFF2080FF28B0D83046FF
:1079600069461430FFF74EF82080FF28A8D86846F3
:1079700000881636470002962868163000262860D0
:1079800013E0029869468019FFF73CF82080FF2831
:1079900008D82868694680190988FFF780F8208090
:1079A000FF2801D980B28BE7B61CBE42E9D3286814
:1079B000022216382860039829460C30FFF795F804
:1079C0002080FF28EFD828680222001D03A9FFF7B6
:1079D0008CF82080FF28E6D8F803010C6846018067
:1079E0002868FFF7B0FE2080FF28DCD869460988A8
:1079F0002868FFF789FE002062E708B56946FFF7AF
:107A000001F815490880684600880004C017401C2A
:107A100008BD73B584B00E46022504A801F033FA00
:107A20000D4CFF2820806CD80498022269460C3047
:107A3000FEF7FDFF2080FF2863D80098401C75D01A
:107A4000684601F020FA2080FF285AD8049900984F
:107A50000A0F010F8A4207E01620002032190000A9
:107A600018200020FFFF00000FD1FFF7C6FF0028FD
:107A700010D0019600980490022269460830FEF763
:107A8000D6FF2080FF283CD83DE0FFF7B6FF002856
:107A90003DD04BE001AA31460098FFF744FF20801B
:107AA000FF282ED8012501990098FFF7B2FF20800A
:107AB000FF2826D8DEE7684601F0E5F92080FF2898
:107AC0001ED80098FFF799FF00280FD12A4601A978
:107AD0000098FFF7B5FE2080FF2811D801250199F5
:107AE0000098FFF796FF2080FF2809D8009804909F
:107AF000022269460830FEF79AFF2080FF2802D94B
:107B000080B206B070BD0098401CD4D10EE0009940
:107B100002913046022202A90C30FEF7E6FF2080D7
:107B2000FF2800D800202080FF28EAD80020E8E7BE
:107B3000F8B50446FEF73AFFFE49FF2808800ED844
:107B4000FD4FE60038682507301805612046FEF72E
:107B500047FF40193968401E711848610020F8BD80
:107B600038B504466946FEF74DFFF249FF28088004
:107B700006D8684600884104490C2046FEF78FFF6E
:107B800038BDF8B50D46164608461768FFF7D0FF12
:107B9000E84CFF28208028D8E748E900006808184A
:107BA000056929461631016129463846FFF731FF3C
:107BB0002080FF2819D82846FFF7D0FD2080FF2815
:107BC00013D8FF2109022846FEF769FF2080FF280D
:107BD0000BD83846FFF7C4FF2080FF2805D80021C6
:107BE00028463560FFF7AFFD2080F8BD10B5D248BC
:107BF00002681068000F06D000210120FFF7C1FFC6
:107C0000CC49088010BD01210020F7E7010A41405E
:107C10000806000E00D00120704710B50446C0B21F
:107C200000F004FF002801D0012010BD200A00F060
:107C3000FDFE10BD38B5BF4C0090009801F0DEF994
:107C40002080FF2807D801226946009801F012F928
:107C50002080FF2801D980B238BD0098401CECD1AB
:107C600038BDF3B583B0039869461430FEF7CAFEF9
:107C7000B04CFF28208049D868460088AF4EB042FB
:107C80002AD1039D16352846FEF76AFF0001290117
:107C900000090909411A7000814200D901466D1896
:107CA0004F080DE001A92846FEF7ACFE208068468B
:107CB0008088B04202D07F1CB9B204E07F1EAD1EA6
:107CC000002FEFD100216846018003981430FEF7A1
:107CD000E6FE2080FF2819D80498C0B2CF2811D121
:107CE00003A801F05BF920800399481C0AD0022008
:107CF00001F00AFE411C02D001F080F902E0039875
:107D0000FFF798FF0398FFF72BFF2080D8E5FFB51A
:107D100081B004460D4607071E4638460399FFF713
:107D200099FC8449002808800DD0AC4208D02C076B
:107D300020460399FFF78EFC7E490028088004D076
:107D400019200002BCE53760BAE53460B8E5F8B543
:107D50000020784E784D308004462046FEF71AFE0B
:107D600000282CD02046FEF744FE030014F01AFB36
:107D700005042D04040427002868E70039180023AF
:107D800010311A46204600F0BCFEFF280ED96C497F
:107D9000308088420AD1204600F05CFE286800232B
:107DA000391810311A46204600F0ABFE2046FEF787
:107DB00017FE210740182968401E79184861641C85
:107DC000A4B2062CC9D33088F8BD5E482107081834
:107DD0002A68E1008A1810612A688918EEE733B52D
:107DE00081B00D4601A801F04EF8524CFF282080CA
:107DF00044D801982946000FFFF715FD2080FF2881
:107E00003CD869460198FEF7FDFD2080FF2835D853
:107E100068460188FF20000201432868FFF7E9FC5B
:107E20002080FF282AD80198022269460C30FEF7EC
:107E3000FEFD2080FF2821D80098401C08D028682B
:107E400002220C306946FEF750FE2080FF2815D82C
:107E50000198022269460830FEF7E9FD2080FF28DC
:107E60000CD80098401C08D02868022208306946C7
:107E7000FEF73BFE2080FF2800D820883EBD70B56D
:107E80000D4601072C4A29601268C0008018016164
:107E900000212868FFF7ADFC264CFF2820800BD876
:107EA00000212868FFF74FFC2080FF2804D800211C
:107EB0002868FFF729FC208870BDFFB506461D4CD9
:107EC00081B00F46C8072BD0039800F0C7FF05000C
:107ED00005D10398FFF742FC2080FF2877D8002EB9
:107EE00004D0012E05D0022E06D110E003980830F0
:107EF00001E003980C300090022204A90098FEF7DC
:107F0000F4FD2080FF2862D8002D03D008E00398FC
:107F10001030F0E70398FFF7C9FB2080FF2856D800
:107F2000B80753D5049800F099FF050011D10498C3
:107F30000AE000001620002018200020FFFF0000AB
:107F40001F190000FFFFFF0FFFF708FC2080FF282C
:107F50003DD80498022203A9001DFEF7C6FD20802B
:107F6000FF2834D8022E29D10398022269460C300A
:107F7000FEF75DFD2080FF2829D80098401C08D01E
:107F80000498022269460C30FEF7AFFD2080FF28DE
:107F90001DD80398022269460830FEF748FD20806C
:107FA000FF2814D80098401C08D004980222694683
:107FB0000830FEF79AFD2080FF2808D8002D05D153
:107FC0000498FFF773FB2080FF2800D8002077E497
:107FD000F8B507460E46084600F055FFFE4CFF2850
:107FE00020802FD83888012813D0002813D00228E9
:107FF00013D005252A466946306800F03BFF2080F3
:10800000FF281FD80098401C1CD03888012806D0B3
:1080100008E00225EEE70125ECE70325EAE700206A
:1080200038800125684600F02EFF2080FF2808D800
:1080300000982A466946306000F01CFF2080FF2827
:1080400001D980B2F8BD0098401CEBD1304600F059
:108050001AFF2080FF28F5D80020F8BD11B583B0A5
:1080600003A800F010FFDC4CFF2820802AD80398DA
:108070006946000FFFF7D7FB2080FF2822D8BF21D9
:108080000098FFF7B6FB2080FF281BD8002100983E
:10809000FFF759FB2080FF2814D800210098FFF734
:1080A00033FB01216846818003A901A8FFF790FFF7
:1080B0002080684603218088009B039AFFF7FDFE1D
:1080C0002080002004B010BD30B585B00D46C3A19E
:1080D0006846FDF734FC04AB01226946286801F0CC
:1080E0002EF8BD4CFF28208003D82868FFF7B6FF84
:1080F000208005B030BDFFB581B00E4608460A9D10
:10810000FDF72EFC074603982946000FFFF78BFB6F
:10811000B14CFF28208046D8002F43D02868019911
:10812000FFF767FB2080FF283DD8286839461630C6
:10813000FEF7B5FC2080FF2835D82868B288316862
:108140001830FEF7EBFC2080FF282CD8B289002ADB
:1081500009D0B188286840181830B168FEF7DEFCF5
:108160002080FF281FD83046FDF7FAFB401C40084E
:10817000401C86B231462868FFF7E5FA2080FF28C8
:1081800011D831462868FFF7BFFA03A904A8FFF702
:108190001FFF208068462B680321008A039AFFF79F
:1081A0008CFE2080002027E47CB58B4D04680646B9
:1081B00002226946201DFEF73AFC2880FF280AD8D3
:1081C0000098411C09D0022201A91030FEF72FFCB3
:1081D0002880FF2804D980B27CBD002034607CBD9B
:1081E00001988442F9D1009CE2E711B581B001A861
:1081F000FFF7DAFF784CFF2820800FD80198009015
:10820000FFF7AEFC2080FF2807D8032269460098BC
:1082100000F030FE2080FF2801D980B21CBD0098FC
:10822000401CFBD00098EBE710B56D4900200A68B0
:10823000014640321368DC0703D09B0701D5401C80
:1082400080B2491C143289B20329F3D310BD10B592
:108250000446142113F0BDFF0020C043A060206835
:1082600040084000206010BD10B55D4804684034EF
:1082700000202168C90706D0401C143480B20328AE
:10828000F7D3002010BD2046FFF7E1FF204610BDC8
:10829000024653480068403000210368DB0702D0E3
:1082A0004368934205D0491C143089B20329F4D3A2
:1082B0000020704710B54A490968403100220B6818
:1082C000DC0706D09B0704D54B68834201D101200F
:1082D00010BD521C143192B2032AF0D3002010BDFD
:1082E00073B50D46684600F0CEFD3B4CFF2820805C
:1082F0000BD802222946009800F0BCFD2080FF2800
:1083000003D82868401C01D036487CBD3448294633
:1083100000688089FFF787FA2080FF28F5D8CF21F1
:108320002868FFF766FA2080FF28EED80221286827
:10833000FFF709FA2080FF28E7D802212868FFF715
:10834000E3F901212B680846009AFFF7B6FD20806B
:108350007CBD10B5024608460A6000F0D2FD1E49F9
:10836000FF28088000D8002010BDFEB50546006932
:108370000121C003C9034018060C69466868FFF76D
:10838000E8FF154CFF28208045D80098FFF7E6F954
:108390002080FF283FD868686F460090384600F07C
:1083A000B0FD2080FF2806D8384600F081FD2080EF
:1083B0000028F9D000202080FF282CD831460098D2
:1083C000FFF7C1F92080FF2825D86868019001A82F
:1083D00000F097FD208007E0162000205C000000E0
:1083E0001820002009190000FF280CD80198294600
:1083F000022210311630FEF778FB2080FF2802D8C9
:108400000198FFF753F92080FF2804D831460098DF
:10841000FFF77AF92088FEBD73B50D46684600F077
:1084200032FDFE4CFF2820800AD8009828600122E7
:108430002946009000F01EFD2080FF2801D980B25F
:108440007CBD2868401C01D02868F0E7F448294624
:1084500000688089FFF7E7F92080FF28F0D8CF2156
:108460002868FFF7C6F92080FF28E9D82B68032188
:108470000020009AFFF721FD20807CBD70B500250B
:10848000ED43044606280BD2FEF784FA002807D0F5
:10849000E349E0000968401800690001000970BD67
:1084A000284670BDFEB505460068DE4EDB4C0F4623
:1084B0000090684600F0E7FC2080FF2814D801A94E
:1084C0000098FEF79FFA2080FF280DD86846808824
:1084D000B04201D0D448FEBD009801A91630FEF785
:1084E00091FA2080FF2801D980B2FEBD68468088BD
:1084F000B84203D1009828600020FEBD684600F015
:10850000D7FC20800028D4D0C7481438FEBDFEB563
:108510000546C44E0068C14C0F46303E0090684688
:1085200000F0B1FC2080FF2814D801A90098FEF7C4
:1085300069FA2080FF280DD868468088B04201D0B3
:10854000B948FEBD009801A91630FEF75BFA2080FD
:10855000FF2801D980B2FEBD68468088B84203D1A9
:10856000009828600020FEBD684600F0A1FC208035
:108570000028D4D0AC481438FEBD70B50C46054672
:10858000FEF72EFAA64AE90012688918096909015E
:108590000909401AA04201D3012070BD002070BD1E
:1085A00077B581B001980D461646000F3021FFF7D0
:1085B000E4FF002833D001982946000FFFF733F974
:1085C000964CFF28208028D8AF212868FFF711F9A2
:1085D0002080FF2821D8286831461630FEF75FFA40
:1085E0002080FF2819D801212868FFF7ACF82080E7
:1085F000FF2812D801212868FFF786F80121684674
:10860000018001A9FFF7E4FC208068462B68032164
:108610000088019AFFF751FC208004B070BDC9208A
:108620004001FAE7FFB583B00C9F0C461D46394662
:10863000184602F0FEFDFF2101310646884203D9AB
:108640007948801C07B0F0BD039871001831000F05
:10865000FFF793FF00281CD003982146000FFFF777
:10866000E2F86E49FF280880ECD87F212068FFF7E8
:10867000C0F86A49FF280880E4D8206805991630B8
:10868000FEF70DFA01466548FF29018004D9084626
:10869000D8E7C9204001D5E721681831009111E0E1
:1086A0002A8869680098FEF720FA5C49FF2808804C
:1086B00002D908460088C5E728880099083541187E
:1086C0004018009038467F1EBFB20028E8D1761CC3
:1086D000B6B231462068FFF736F8504DFF282880A3
:1086E000B0D831462068FFF70FF801216846818035
:1086F00003A901A8FFF76CFC2880684623680321C2
:108700008088039AFFF7D9FB28809BE7FFB50446D2
:1087100087B00068029015461E461946104602F0C2
:1087200088FD074602982146000FFFF77CF83B4979
:10873000FF2808801FD8029879001831000FFFF732
:108740001CFF002815D07F212068FFF752F833491D
:10875000FF2808800FD8206808991630FEF79FF987
:108760002E49FF28088006D8002F1DD02068183019
:1087700014E0C92040010BB0F0BD2A886968009858
:10878000FEF7B3F92549FF28088002D9084600887A
:10879000F1E72888009908354118401800903046C4
:1087A000761EB6B20028E8D17F1CBEB231462068E2
:1087B000FEF7C9FF194DFF282880DCD83146206814
:1087C000FEF7A2FF02216846818202A905A8FFF7F1
:1087D000FFFB2880684623680321808A029AFFF7FE
:1087E0006CFB2880C7E7F7B50E461546100B02D084
:1087F0000D48801EFEBD684600F083FB074CFF2835
:108800002080F7D8BF21684600F029FC2080FF288F
:10881000F0D8684600F075FB208007E016200020A5
:1088200018200020AFFF00001C190000864F7F1E9B
:10883000FF2826D80F202946000201406846FFF78E
:1088400031FE2080FF281CD8684600F05AFB2080AB
:10885000FF2816D8FF202946000101406846FFF78F
:1088600021FE2080FF280CD8684600F04AFB2080BB
:10887000FF2806D829466846FFF749FE2080FF28D2
:1088800001D93846FEBD009830600020FEBDFFB51E
:10889000064685B00D461F46080B03D06A48801E69
:1088A00009B0F0BD0A4603A93046FFF79CFF674CAC
:1088B0000028208020D001A8019600F022FB208013
:1088C000FF28EDD8BF2101A800F0C9FB2080FF28B8
:1088D000E6D80198039003A800F013FB0F210902CA
:1088E0002E460E402080FF280DD9324603A901985C
:1088F000FFF756FE208017E03B46294603A8079A5B
:10890000FFF704FF3AE0314603A8FFF7CBFD2080D4
:10891000FF280CD9324603A90198FFF741FEC9216F
:10892000490120808842BBD080B2FF281BD8039821
:10893000019003A800F0E5FAFF2109012E460E4040
:108940002080FF2806D8314603A8FFF7ABFD208022
:10895000FF280BD9324603A90198FFF721FE20809A
:1089600080B2FF2802D93848401C99E70398009745
:1089700001902A4603A9079BFFF754FE208080B28E
:108980008EE7F3B585B00022069905072F4CC60087
:108990002F4F0A6043E06946A81CFEF733F8208099
:1089A000FF282FD868460088FFF737F9002805D13F
:1089B00068460088FFF72AF9002802D02248C01C28
:1089C00040E6284669461430FEF71CF82080FF2850
:1089D00018D86846008803A9400016300190284640
:1089E000FEF710F82080FF280CD868468089000424
:1089F0000DD52846022202A91030FEF718F8208073
:108A0000FF2801D980B21DE60298401C05D00698C7
:108A10000168019809180698016001982D183868B6
:108A200030180069A842B6D800200BE60121820761
:108A3000920F012A06D0491C400889B20729F6D9AD
:108A400000207047012070471C19000016200020EC
:108A50001820002010B50446FDF7A8FFFA4B2107A7
:108A60005B68E200D218116110BD38B501240225FF
:108A70000020FFF7EFFF69460880012002E028464A
:108A80006D1CADB2FFF7E6FF0146684602F0F0FB51
:108A90002046641EA4B20028F1D16846008838BD83
:108AA00010B5FFF7E2FFE84C00206168FFF7E7F937
:108AB000608000206168FFF707FB6080616801202B
:108AC000886010BD10B5002904D06422504313F013
:108AD00013FB00E0002080B210BD70B50C460546C7
:108AE000FDF758FF00280AD0642044432846FDF7CC
:108AF00077FF0146204613F0FFFA80B270BD642074
:108B000070BDFFB585B00D461E460598FDF742FFC6
:108B1000002811D005980007049028600598FDF7FB
:108B20005FFF074607990020002900D00860C64C67
:108B3000002E73D0306071E00020C0432860C3482D
:108B400009B0F0BD02A92868FDF75CFF6080FF282E
:108B500055D8286801A9801CFDF754FF6080FF28C4
:108B60004DD868460189BA48814205D1694689884D
:108B7000814201D10020E3E768468088FFF74DF885
:108B8000002822D168468088FFF740F800280DD0E1
:108B9000694609892868FFF764F86080FF282ED8A5
:108BA0002868FEF783FD6080FF2828D8286801A97F
:108BB0001430FDF727FF6080FF2820D868468088A2
:108BC000400016300090874202D2A0481D30B7E71F
:108BD0000798002804D001680098091807980160D8
:108BE000002E15D06846008900040DD528680222A1
:108BF000103003A9FDF71BFF6080FF2801D980B268
:108C00009EE70398401C03D0316800980818306034
:108C1000296800980818286000983F1A162F91D8E4
:108C2000002F06D10598FDF7DBFE04994018401E81
:108C300028608648401E83E73EB5002802D0FEF734
:108C4000D5FF3EBD804D6B46686801AA006802A949
:108C5000000FFFF756FFFF2803D97C49491E8842C1
:108C6000EFD100980024002818D0686801990068A6
:108C7000000FFFF732FF029001990098FFF722FFE3
:108C8000029900905F2902D9012804D806E04B29F7
:108C900004D9192802D9FEF7A9FF044620463EBD93
:108CA00010B502F053FE6848001D02F0B5FA01202D
:108CB00010BD10B57C2002F0ABFA634948607C21FE
:108CC00013F087FA10BD70B55F4D00241420696859
:108CD000604340184030FFF7BAFA641CA4B2032C7A
:108CE000F4D30026696802228E608A8130461031F2
:108CF00033463246FFF705FF68806968002301208C
:108D000018311A46FFF7FDFE688000246968E0000C
:108D10004118A01C0023203180B21A46FFF7F1FE53
:108D2000641C24046880240CF0D000220121104629
:108D30006B68FEF7ECFFFF2805D80020FFF77CFFEB
:108D40006880FF2802D9FFF7ABFE70BD68688660B7
:108D500070BD10B5FEF7FBFF3B494880FFF7B3FF3E
:108D600000F056FE02F0BCFD01220021394801F05E
:108D700074FC10BDF8B504460E4600206946088014
:108D800005462846FDF735FE002819D02846FDF790
:108D900030FE012817D02846FDF72BFE022814D0FC
:108DA0002846FDF726FE032814D02846FDF721FEAD
:108DB000042811D02846FDF71CFE05281DD015E01B
:108DC000E0070CD112E0A00707E060070ED5002EE7
:108DD00005D10BE0200700E0E006002806DA28466F
:108DE000FFF738FE0146684602F042FA6D1CADB24C
:108DF000062DC6D368460088F8BDA006EDE71248E8
:108E000040688068C007C00F70470F490888002875
:108E1000FDD0401E088070470B480188491C018026
:108E2000704738B50C466946FDF7ECFD0649FF284A
:108E3000488011D8FF20000204436846008884421D
:108E40000AD1012038BD00001420002002190000C2
:108E5000FFFF0000A18C01000020F3E708B5694680
:108E6000801CFDF7CFFDFB49488068460088FEF76F
:108E7000CDFE08BD10B5F84B52009A5A10180222C8
:108E8000FDF7D5FD10BD38B504460068F14D0090E2
:108E900000982060103002226946FDF7C8FD688006
:108EA000FF2801D980B2CDE70098401CF0D1C9E776
:108EB0007CB505460068E74C00906846FFF7E3FF85
:108EC0006080FF2807D8012201A90098FFF7D2FF90
:108ED0006080FF2801D980B27CBD0198411C0ED072
:108EE0000090FEF78AFD0028E7D16846FFF7CBFF28
:108EF0006080FF28F0D80098286000207CBDD7480B
:108F00007CBDF8B50546006802226946FFF7B2FF4E
:108F1000D04CFF28608012D80098D14E411C0FD051
:108F2000FEF76BFD002868460CD0FFF7C1FF60809C
:108F300000280CD0711C884200D166806088F8BD82
:108F40003046F8BDFFF79FFF6080FF28F9D80098F2
:108F500028600020F8BDF8B5BE4C074660680D4695
:108F6000006800906846FFF7CCFFBC4E6080133667
:108F7000FF2807D808E06846FFF79AFF60800004E2
:108F8000000C01D03046F8BD39460098FFF749FF84
:108F90000028F0D0009828600020F8BD7CB5054678
:108FA0000068AC4C00900098002269462860FFF7EA
:108FB00061FF6080FF2809D80098411C08D0022278
:108FC00001A9FFF757FF6080FF280AD980B27CBD56
:108FD0002846FFF758FF6080FF28F8D89F48801C7C
:108FE0007CBD286801998842DDD16846FFF74BFFB8
:108FF0006080FF28F4D8009929607CBD11B581B04C
:1090000001A8FFF740FF934CFF28608005D8019826
:10901000FEF7F3FC002801D000201CBD0198FEF7EC
:109020009DFB0198022269460C30FDF700FD60802F
:10903000FF28F2D80098411C04D0FEF7FBFD6080A9
:10904000FF28EAD80198FFF7D0F86080FF28E4D81D
:109050000198FEF72BFB0198FEF782FD1CBDF8B5C9
:109060000646FF2000020D467A4C05433046FFF7C6
:109070000AFF6080FF2806D869463068FDF7C2FC09
:109080006080FF2801D980B2F8BD6846008885421B
:1090900001D10020F8BD3046FFF70AFF60800028AC
:1090A000E4D06E48C01CF8BD10B51430FDF7AAFC22
:1090B0006849488010BDF8B50E4617460546694612
:1090C000FFF7F2FF634CFF2860800ED868460088E7
:1090D000864206D21635A81980193946FDF792FC4A
:1090E00001E05E481430608080B2F8BDF8B50E46ED
:1090F000174605466946FFF7D7FF564CFF286080A4
:109100001CD8694609887008884213D27008163541
:10911000400040196946FDF775FC6080F00768461D
:10912000008801D0010A00E0C1B26846018088B21F
:10913000387002E04948143060806088F8BD7FB51F
:1091400082B00E4615461C4602A8FFF79CFE414918
:10915000FF28488006D82B4600943146EF20029A1B
:10916000FEF7C9FF06B070BD37B582B00D46144694
:1091700002A8FFF788FE3749FF28488006D8012358
:1091800000942946DF20029AFEF7B5FF05B030BDF6
:10919000F8B506460D460846FCF7E2FB07003FD04F
:1091A00069463046FEF71BFE2A4CFF28608036D801
:1091B000009839461630FDF772FC6080FF282ED8E3
:1091C0000098AA8829681830FDF7A8FC6080FF285D
:1091D00025D8AA89002A09D00098AB881830A96838
:1091E0001818FDF79BFC6080FF2818D82846FCF76C
:1091F000B7FB401C4008401C85B229460098FEF78A
:10920000A2FA6080FF280AD829460098FEF77CFA67
:10921000324603210220009BFEF74FFE6080F8BD1E
:109220000020F8BDFFB581B00F460398FCF798FB0E
:10923000050024D00024074E1FE0E01981B26A46E1
:109240000198FFF753FF7080FF280BD9002005B06D
:10925000F0BD00001420002046CC020005190000DB
:1092600004190000684602782146049B0398FCF725
:10927000BBFB0028EBD0641CA4B2AC42DDD30120C0
:10928000E5E7FEB5064608680D46009017463146EC
:109290006846FFF7E4FEF74CFF2860801AD825E007
:1092A00001AA00210098FFF706FF6080FF2820D860
:1092B0003846FCF755FB6946898888420BD1002364
:1092C0003A4602210098FFF7ADFF002803D000982E
:1092D00028600020FEBD6846FFF7EAFD6080FF2899
:1092E00007D831466846FFF7BAFE60800004000CDC
:1092F000D6D080B2FEBDFFB583B005980F461D469F
:1093000000281AD0FCF72CFB060016D00398D94C85
:10931000006800900020608001A90098FFF7C4FE5B
:109320006080FF2829D8694688884004000C88801E
:10933000B919814219D82F6011E02F6009E000238C
:10934000059A0098FFF76EFF002805D00398009952
:109350000160002007B07BE72868401C286029686E
:109360006A46928888199042E9D96846FFF7A0FDBD
:109370006080FF2801D80028CED080B2EAE7F8B597
:1093800005460E460068EF210090FFF74AFD0028D1
:109390000AD06846FFF7B5FDB64CB74960808842F1
:1093A00005D1B5480C30F8BDB3480B30F8BD324696
:1093B0006946DF20FFF765FF60800028F6D100993D
:1093C0002960F8BDFEB5009016466846FFF7D7FF46
:1093D000A84DFF28688002D9A7480C30FEBD009830
:1093E000FEF768FF002802D0A3481330FEBDFEF749
:1093F0003BFF04001AD001A90098FEF7AAFF9E4F78
:1094000068801237FF280FD80198214602221031B8
:109410001630FDF70CFB6880FF2805D801A8FFF780
:1094200047FD6880FF2804D93846FEBD92480930C0
:10943000FEBD0198A060009860600020E060206898
:109440000221884301210843206068681421201A02
:10945000403812F067FE30800020FEBDF7B582B0C4
:1094600007460090164668460399FFF788FF814D2E
:109470000028688006D0FEF7D7FE002805D07E4879
:109480000830E4E67C480A30E1E6FEF7EDFE040031
:1094900018D068684C210068000FFFF76EF80028AC
:1094A00013D068688089FDF79BFA69684C388A890F
:1094B000D2005118096909010909884208D8C92050
:1094C0004001C4E66C480930C1E66B482B30BEE66B
:1094D0006A4638460399FFF747FE6880FF28D0D8D0
:1094E000009869466060FEF7FBFE6880FF28C8D8D8
:1094F00069460098FEF790FF6880FF28C1D80020D9
:10950000E06020610098A06020680321084320608B
:1095100068681421201A403812F004FE30800020C0
:1095200095E670B5032802D353480D3070BD142161
:10953000504D48436968441840342068C10707D03B
:10954000800705D52046FEF710FF6880FF28EDD87C
:109550002046FEF77CFE002070BDF8B50F4615468C
:10956000032802D344480D30F8BD14214843414933
:109570004968441840342068C10704D0800705D4E6
:109580003D480F30F8BD3C480E30F8BDE1683B4A1D
:109590004819904202D338481130F8BDA0681630FF
:1095A0000E18300FFDF71CFA310109094C38491922
:1095B000884202D2C9204001F8BDE0684019E0604D
:1095C0002169884200D920612A4639463046FDF794
:1095D000A5FAF8BD70B5032802D327480D3070BD39
:1095E00014235843234B5B68C31840331868C007E3
:1095F00014D01488D86805191C69A54201D9201A0D
:1096000010801488002C0CD0DD6898682C19163056
:10961000DC6028181288FDF727FA70BD16480E3056
:1096200070BD002070BD032802D313480D30704771
:10963000142250430F4A5268801840300268D20703
:1096400003D000690860002070470B480E30704757
:1096500010B503280BD214235843064B5B68C0187F
:1096600040300368DB0702D003698B4208D8002032
:1096700010BD00001420002004190000FEFF0100AE
:10968000806816304018591A1160FDF75DFAEFE74F
:10969000032801D3D248704714225043D14A52685C
:1096A000801840300268D20705D002698A4205D28C
:1096B000CB48C01C7047CA48401C7047C16000209E
:1096C00070470022D243032802D3C5480A6070477E
:1096D00014235843C34B5B68C01840300368DB0752
:1096E00003D0C068086000207047BD480A60401C75
:1096F0007047FFB581B00E0014461F4611D0002CF4
:109700000FD019460198FDF77DF9B64DFF28688006
:1097100007D83888B449884205D0B34910398842FF
:1097200001D0002093E56A4600210198FFF7C3FCB1
:109730006880684600880028F4D0A04201D96846B5
:109740000480002409E0A01C324681B2761C0198F6
:10975000FFF7CCFC641C6880A4B26A461088411EE6
:1097600011800028EFD1204671E510B50C46FEF7B8
:109770008FFD002808D00068800701D5012000E097
:1097800000202070002073E79548401C70E70346D6
:1097900010B594480A46406819460068FFF723F858
:1097A00066E77CB50D46010B02D08D4809307CBDC3
:1097B00001466846FFF7EBFF8A4C002860800AD11B
:1097C00001A90098FFF770FC6080FF28EFD8684679
:1097D0008088401E288060887CBDFFB50E4683B01F
:1097E0001D46010B02D07E480930B3E501466846AC
:1097F000FFF7CDFF7B4C00276080002802D02F8030
:109800006088A7E501A90098FFF74EFC6080FF285B
:10981000EBD86946761C8988B0B2884202D32F8083
:10982000002097E52A88091A914200DA29800099D8
:1098300009181631081800902A880599FDF7F7F8DD
:109840006080FF28DCD985E5F7B5664D82B0686891
:109850000F460A460068049B0299FFF718F8C924CE
:109860006401A0421BD13846049901F0E2FC06468F
:10987000686869460068000FFFF783F800280ED17A
:1098800000981C36B0420BD9FEF7B0F9002806D17B
:1098900068683A460068049B0299FEF7F8FFD6E430
:1098A0002046D4E4FEB50F4616460546FFF7EBFA10
:1098B0004C4C3A466080286801A900900CE068464C
:1098C000FFF7F6FA60800004000C02D04448C01D87
:1098D000FEBD3A4601A90098FFF7CCFA60800198D6
:1098E000B0420DD06846FFF70CFB60800028E6D13F
:1098F000324639466846FFF7D5FF60800028DED142
:10990000009828600020FEBD08B5364A52681268EB
:1099100000920A4601466846FFF7C4FF002802D0BD
:109920000020C04308BD009808BDF8B504460E46A7
:109930000090154611466846FFF721FD00280BD020
:10994000314668460094FFF71AFD2649FF284880F3
:1099500005D92348401EF8BD2148C01EF8BD009817
:10996000FEF7A8FC002802D01D48801DF8BD29463E
:109970000098FFF70DFCF8BDF8B507460C461546F4
:109980001E46062806D300200860106018601448A0
:109990000F38F8BDFDF724F820603846FEF76EFD5D
:1099A0002168081A306029463846FEF7EAFF002091
:1099B000F8BD30B40B4C0028646802D02068000F5A
:1099C00000E0A08930BCD7E730B404460548134610
:1099D00040680A464068214630BC000FCCE70000D2
:1099E0001119000014200020EFFF000010B573488B
:1099F00002685068000F032807D003210420121DBD
:109A0000FEF7BFF86E49088010BD04210320F6E779
:109A100070B56A4C0022236804211B1D0320FEF749
:109A200076F9FF2811D90320FFF714F80420FFF777
:109A300011F821680320091DFEF721FA604D2880E6
:109A400020684068FEF70AFB288070BDF3B589B036
:109A50000C46084600F09AFA6A4610800998000BF6
:109A600002D058480BB0F0BD01A9204600F01FF904
:109A700001A9204600F02EF90198002802D001200B
:109A80004002EFE701A9204600F011F968460121E4
:109A90000490818100880E46002806D00199401C60
:109AA00040080691694688820226444D334628685C
:109AB00003AA40680999FEF7EAFE414CC9277F01D5
:109AC0002080B8421DD1286807A94068000FFEF722
:109AD00058FF2080002814D16846008807991C3060
